{
  "_format": "hh-sol-artifact-1",
  "contractName": "Marketplace",
  "sourceName": "src/backend/contracts/Marketplace.sol",
  "abi": [
    {
      "inputs": [
        {
          "internalType": "uint256",
          "name": "_feePercent",
          "type": "uint256"
        }
      ],
      "stateMutability": "nonpayable",
      "type": "constructor"
    },
    {
      "anonymous": false,
      "inputs": [
        {
          "indexed": false,
          "internalType": "uint256",
          "name": "itemId",
          "type": "uint256"
        },
        {
          "indexed": true,
          "internalType": "address",
          "name": "nft",
          "type": "address"
        },
        {
          "indexed": false,
          "internalType": "uint256",
          "name": "tokenId",
          "type": "uint256"
        },
        {
          "indexed": false,
          "internalType": "uint256",
          "name": "price",
          "type": "uint256"
        },
        {
          "indexed": true,
          "internalType": "address",
          "name": "seller",
          "type": "address"
        },
        {
          "indexed": true,
          "internalType": "address",
          "name": "buyer",
          "type": "address"
        }
      ],
      "name": "Bought",
      "type": "event"
    },
    {
      "anonymous": false,
      "inputs": [
        {
          "indexed": false,
          "internalType": "uint256",
          "name": "itemId",
          "type": "uint256"
        },
        {
          "indexed": true,
          "internalType": "address",
          "name": "nft",
          "type": "address"
        },
        {
          "indexed": false,
          "internalType": "uint256",
          "name": "tokenId",
          "type": "uint256"
        },
        {
          "indexed": false,
          "internalType": "uint256",
          "name": "price",
          "type": "uint256"
        },
        {
          "indexed": true,
          "internalType": "address",
          "name": "seller",
          "type": "address"
        }
      ],
      "name": "Offered",
      "type": "event"
    },
    {
      "inputs": [],
      "name": "feeAccount",
      "outputs": [
        {
          "internalType": "address payable",
          "name": "",
          "type": "address"
        }
      ],
      "stateMutability": "view",
      "type": "function"
    },
    {
      "inputs": [],
      "name": "feePercent",
      "outputs": [
        {
          "internalType": "uint256",
          "name": "",
          "type": "uint256"
        }
      ],
      "stateMutability": "view",
      "type": "function"
    },
    {
      "inputs": [
        {
          "internalType": "uint256",
          "name": "page",
          "type": "uint256"
        }
      ],
      "name": "fetchItems",
      "outputs": [
        {
          "components": [
            {
              "internalType": "uint256",
              "name": "itemId",
              "type": "uint256"
            },
            {
              "internalType": "contract IERC721",
              "name": "nft",
              "type": "address"
            },
            {
              "internalType": "uint256",
              "name": "tokenId",
              "type": "uint256"
            },
            {
              "internalType": "uint256",
              "name": "price",
              "type": "uint256"
            },
            {
              "internalType": "address payable",
              "name": "seller",
              "type": "address"
            },
            {
              "internalType": "bool",
              "name": "sold",
              "type": "bool"
            }
          ],
          "internalType": "struct Marketplace.Item[]",
          "name": "",
          "type": "tuple[]"
        }
      ],
      "stateMutability": "view",
      "type": "function"
    },
    {
      "inputs": [],
      "name": "fetchMyItems",
      "outputs": [
        {
          "components": [
            {
              "internalType": "uint256",
              "name": "itemId",
              "type": "uint256"
            },
            {
              "internalType": "contract IERC721",
              "name": "nft",
              "type": "address"
            },
            {
              "internalType": "uint256",
              "name": "tokenId",
              "type": "uint256"
            },
            {
              "internalType": "uint256",
              "name": "price",
              "type": "uint256"
            },
            {
              "internalType": "address payable",
              "name": "seller",
              "type": "address"
            },
            {
              "internalType": "bool",
              "name": "sold",
              "type": "bool"
            }
          ],
          "internalType": "struct Marketplace.Item[]",
          "name": "",
          "type": "tuple[]"
        }
      ],
      "stateMutability": "view",
      "type": "function"
    },
    {
      "inputs": [
        {
          "internalType": "uint256",
          "name": "_itemId",
          "type": "uint256"
        }
      ],
      "name": "getTotalPrice",
      "outputs": [
        {
          "internalType": "uint256",
          "name": "",
          "type": "uint256"
        }
      ],
      "stateMutability": "view",
      "type": "function"
    },
    {
      "inputs": [],
      "name": "itemCount",
      "outputs": [
        {
          "internalType": "uint256",
          "name": "",
          "type": "uint256"
        }
      ],
      "stateMutability": "view",
      "type": "function"
    },
    {
      "inputs": [
        {
          "internalType": "uint256",
          "name": "",
          "type": "uint256"
        }
      ],
      "name": "items",
      "outputs": [
        {
          "internalType": "uint256",
          "name": "itemId",
          "type": "uint256"
        },
        {
          "internalType": "contract IERC721",
          "name": "nft",
          "type": "address"
        },
        {
          "internalType": "uint256",
          "name": "tokenId",
          "type": "uint256"
        },
        {
          "internalType": "uint256",
          "name": "price",
          "type": "uint256"
        },
        {
          "internalType": "address payable",
          "name": "seller",
          "type": "address"
        },
        {
          "internalType": "bool",
          "name": "sold",
          "type": "bool"
        }
      ],
      "stateMutability": "view",
      "type": "function"
    },
    {
      "inputs": [
        {
          "internalType": "contract IERC721",
          "name": "_nft",
          "type": "address"
        },
        {
          "internalType": "uint256",
          "name": "_tokenId",
          "type": "uint256"
        },
        {
          "internalType": "uint256",
          "name": "_price",
          "type": "uint256"
        }
      ],
      "name": "makeItem",
      "outputs": [],
      "stateMutability": "nonpayable",
      "type": "function"
    },
    {
      "inputs": [
        {
          "internalType": "uint256",
          "name": "_itemId",
          "type": "uint256"
        }
      ],
      "name": "purchaseItem",
      "outputs": [],
      "stateMutability": "payable",
      "type": "function"
    }
  ],
  "bytecode": "0x60c06040523480156200001157600080fd5b50604051620018e6380380620018e683398181016040528101906200003791906200009c565b60016000819055503373ffffffffffffffffffffffffffffffffffffffff1660808173ffffffffffffffffffffffffffffffffffffffff1660601b815250508060a0818152505050620000ec565b6000815190506200009681620000d2565b92915050565b600060208284031215620000af57600080fd5b6000620000bf8482850162000085565b91505092915050565b6000819050919050565b620000dd81620000c8565b8114620000e957600080fd5b50565b60805160601c60a0516117c362000123600039600081816104cf01526107e50152600081816104a50152610a0b01526117c36000f3fe6080604052600436106100865760003560e01c8063bb80449211610059578063bb80449214610137578063bfb231d214610174578063ca7dd375146101b6578063d38ea5bf146101f3578063fa00afc71461020f57610086565b806315c9ae101461008b57806365e17c9d146100b65780636bfb0d01146100e15780637fd6f15c1461010c575b600080fd5b34801561009757600080fd5b506100a0610238565b6040516100ad9190611261565b60405180910390f35b3480156100c257600080fd5b506100cb6104a3565b6040516100d8919061120f565b60405180910390f35b3480156100ed57600080fd5b506100f66104c7565b6040516101039190611323565b60405180910390f35b34801561011857600080fd5b506101216104cd565b60405161012e9190611323565b60405180910390f35b34801561014357600080fd5b5061015e60048036038101906101599190610fbf565b6104f1565b60405161016b9190611261565b60405180910390f35b34801561018057600080fd5b5061019b60048036038101906101969190610fbf565b610756565b6040516101ad9695949392919061133e565b60405180910390f35b3480156101c257600080fd5b506101dd60048036038101906101d89190610fbf565b6107df565b6040516101ea9190611323565b60405180910390f35b61020d60048036038101906102089190610fbf565b610842565b005b34801561021b57600080fd5b5061023660048036038101906102319190610f70565b610c10565b005b6060600060015467ffffffffffffffff81111561027e577f4e487b7100000000000000000000000000000000000000000000000000000000600052604160045260246000fd5b6040519080825280602002602001820160405280156102b757816020015b6102a4610ee2565b81526020019060019003908161029c5790505b5090506000805b60015481101561049a573373ffffffffffffffffffffffffffffffffffffffff166002600083815260200190815260200160002060040160009054906101000a900473ffffffffffffffffffffffffffffffffffffffff1673ffffffffffffffffffffffffffffffffffffffff16141561048657600260008281526020019081526020016000206040518060c0016040529081600082015481526020016001820160009054906101000a900473ffffffffffffffffffffffffffffffffffffffff1673ffffffffffffffffffffffffffffffffffffffff1673ffffffffffffffffffffffffffffffffffffffff16815260200160028201548152602001600382015481526020016004820160009054906101000a900473ffffffffffffffffffffffffffffffffffffffff1673ffffffffffffffffffffffffffffffffffffffff1673ffffffffffffffffffffffffffffffffffffffff1681526020016004820160149054906101000a900460ff161515151581525050838380610441906115c5565b94508151811061047a577f4e487b7100000000000000000000000000000000000000000000000000000000600052603260045260246000fd5b60200260200101819052505b6001816104939190611420565b90506102be565b50819250505090565b7f000000000000000000000000000000000000000000000000000000000000000081565b60015481565b7f000000000000000000000000000000000000000000000000000000000000000081565b60606000600a8361050291906114a7565b90506000600154600a836105169190611420565b1161052d576009826105289190611420565b610531565b6001545b90506000600183836105439190611501565b61054d9190611420565b905060008167ffffffffffffffff811115610591577f4e487b7100000000000000000000000000000000000000000000000000000000600052604160045260246000fd5b6040519080825280602002602001820160405280156105ca57816020015b6105b7610ee2565b8152602001906001900390816105af5790505b50905060005b828110156107495760026000600a896105e991906114a7565b836105f49190611420565b81526020019081526020016000206040518060c0016040529081600082015481526020016001820160009054906101000a900473ffffffffffffffffffffffffffffffffffffffff1673ffffffffffffffffffffffffffffffffffffffff1673ffffffffffffffffffffffffffffffffffffffff16815260200160028201548152602001600382015481526020016004820160009054906101000a900473ffffffffffffffffffffffffffffffffffffffff1673ffffffffffffffffffffffffffffffffffffffff1673ffffffffffffffffffffffffffffffffffffffff1681526020016004820160149054906101000a900460ff16151515158152505082828151811061072b577f4e487b7100000000000000000000000000000000000000000000000000000000600052603260045260246000fd5b60200260200101819052508080610741906115c5565b9150506105d0565b5080945050505050919050565b60026020528060005260406000206000915090508060000154908060010160009054906101000a900473ffffffffffffffffffffffffffffffffffffffff16908060020154908060030154908060040160009054906101000a900473ffffffffffffffffffffffffffffffffffffffff16908060040160149054906101000a900460ff16905086565b600060647f000000000000000000000000000000000000000000000000000000000000000060646108109190611420565b600260008581526020019081526020016000206003015461083191906114a7565b61083b9190611476565b9050919050565b60026000541415610888576040517f08c379a000000000000000000000000000000000000000000000000000000000815260040161087f90611303565b60405180910390fd5b6002600081905550600061089b826107df565b905060006002600084815260200190815260200160002090506000831180156108c657506001548311155b610905576040517f08c379a00000000000000000000000000000000000000000000000000000000081526004016108fc906112e3565b60405180910390fd5b81341015610948576040517f08c379a000000000000000000000000000000000000000000000000000000000815260040161093f906112c3565b60405180910390fd5b8060040160149054906101000a900460ff161561099a576040517f08c379a000000000000000000000000000000000000000000000000000000000815260040161099190611283565b60405180910390fd5b8060040160009054906101000a900473ffffffffffffffffffffffffffffffffffffffff1673ffffffffffffffffffffffffffffffffffffffff166108fc82600301549081150290604051600060405180830381858888f19350505050158015610a08573d6000803e3d6000fd5b507f000000000000000000000000000000000000000000000000000000000000000073ffffffffffffffffffffffffffffffffffffffff166108fc826003015484610a539190611501565b9081150290604051600060405180830381858888f19350505050158015610a7e573d6000803e3d6000fd5b5060018160040160146101000a81548160ff0219169083151502179055508060010160009054906101000a900473ffffffffffffffffffffffffffffffffffffffff1673ffffffffffffffffffffffffffffffffffffffff166323b872dd303384600201546040518463ffffffff1660e01b8152600401610b019392919061122a565b600060405180830381600087803b158015610b1b57600080fd5b505af1158015610b2f573d6000803e3d6000fd5b505050503373ffffffffffffffffffffffffffffffffffffffff168160040160009054906101000a900473ffffffffffffffffffffffffffffffffffffffff1673ffffffffffffffffffffffffffffffffffffffff168260010160009054906101000a900473ffffffffffffffffffffffffffffffffffffffff1673ffffffffffffffffffffffffffffffffffffffff167f8b4c9c8a607d67b321582dd8461041b1dc2ceeca70c8b7f37f8e02095cf2e76d8685600201548660030154604051610bfb9392919061139f565b60405180910390a45050600160008190555050565b60026000541415610c56576040517f08c379a0000000000000000000000000000000000000000000000000000000008152600401610c4d90611303565b60405180910390fd5b600260008190555060008111610ca1576040517f08c379a0000000000000000000000000000000000000000000000000000000008152600401610c98906112a3565b60405180910390fd5b60016000815480929190610cb4906115c5565b91905055508273ffffffffffffffffffffffffffffffffffffffff166323b872dd3330856040518463ffffffff1660e01b8152600401610cf69392919061122a565b600060405180830381600087803b158015610d1057600080fd5b505af1158015610d24573d6000803e3d6000fd5b505050506040518060c0016040528060015481526020018473ffffffffffffffffffffffffffffffffffffffff1681526020018381526020018281526020013373ffffffffffffffffffffffffffffffffffffffff168152602001600015158152506002600060015481526020019081526020016000206000820151816000015560208201518160010160006101000a81548173ffffffffffffffffffffffffffffffffffffffff021916908373ffffffffffffffffffffffffffffffffffffffff160217905550604082015181600201556060820151816003015560808201518160040160006101000a81548173ffffffffffffffffffffffffffffffffffffffff021916908373ffffffffffffffffffffffffffffffffffffffff16021790555060a08201518160040160146101000a81548160ff0219169083151502179055509050503373ffffffffffffffffffffffffffffffffffffffff168373ffffffffffffffffffffffffffffffffffffffff167f655a0cf9c8db81512be9a76dc1c5ae5380b8816ce6ad659cd61b715e2999d59a6001548585604051610ecd9392919061139f565b60405180910390a36001600081905550505050565b6040518060c0016040528060008152602001600073ffffffffffffffffffffffffffffffffffffffff1681526020016000815260200160008152602001600073ffffffffffffffffffffffffffffffffffffffff1681526020016000151581525090565b600081359050610f558161175f565b92915050565b600081359050610f6a81611776565b92915050565b600080600060608486031215610f8557600080fd5b6000610f9386828701610f46565b9350506020610fa486828701610f5b565b9250506040610fb586828701610f5b565b9150509250925092565b600060208284031215610fd157600080fd5b6000610fdf84828501610f5b565b91505092915050565b6000610ff48383611176565b60c08301905092915050565b61100981611547565b82525050565b61101881611547565b82525050565b61102781611535565b82525050565b6000611038826113e6565b61104281856113fe565b935061104d836113d6565b8060005b8381101561107e5781516110658882610fe8565b9750611070836113f1565b925050600181019050611051565b5085935050505092915050565b61109481611559565b82525050565b6110a381611559565b82525050565b6110b2816115a1565b82525050565b6110c1816115a1565b82525050565b60006110d460118361140f565b91506110df8261166c565b602082019050919050565b60006110f7601f8361140f565b915061110282611695565b602082019050919050565b600061111a60338361140f565b9150611125826116be565b604082019050919050565b600061113d60128361140f565b91506111488261170d565b602082019050919050565b6000611160601f8361140f565b915061116b82611736565b602082019050919050565b60c08201600082015161118c60008501826111f1565b50602082015161119f60208501826110a9565b5060408201516111b260408501826111f1565b5060608201516111c560608501826111f1565b5060808201516111d86080850182611000565b5060a08201516111eb60a085018261108b565b50505050565b6111fa81611597565b82525050565b61120981611597565b82525050565b6000602082019050611224600083018461100f565b92915050565b600060608201905061123f600083018661101e565b61124c602083018561101e565b6112596040830184611200565b949350505050565b6000602082019050818103600083015261127b818461102d565b905092915050565b6000602082019050818103600083015261129c816110c7565b9050919050565b600060208201905081810360008301526112bc816110ea565b9050919050565b600060208201905081810360008301526112dc8161110d565b9050919050565b600060208201905081810360008301526112fc81611130565b9050919050565b6000602082019050818103600083015261131c81611153565b9050919050565b60006020820190506113386000830184611200565b92915050565b600060c0820190506113536000830189611200565b61136060208301886110b8565b61136d6040830187611200565b61137a6060830186611200565b611387608083018561100f565b61139460a083018461109a565b979650505050505050565b60006060820190506113b46000830186611200565b6113c16020830185611200565b6113ce6040830184611200565b949350505050565b6000819050602082019050919050565b600081519050919050565b6000602082019050919050565b600082825260208201905092915050565b600082825260208201905092915050565b600061142b82611597565b915061143683611597565b9250827fffffffffffffffffffffffffffffffffffffffffffffffffffffffffffffffff0382111561146b5761146a61160e565b5b828201905092915050565b600061148182611597565b915061148c83611597565b92508261149c5761149b61163d565b5b828204905092915050565b60006114b282611597565b91506114bd83611597565b9250817fffffffffffffffffffffffffffffffffffffffffffffffffffffffffffffffff04831182151516156114f6576114f561160e565b5b828202905092915050565b600061150c82611597565b915061151783611597565b92508282101561152a5761152961160e565b5b828203905092915050565b600061154082611577565b9050919050565b600061155282611577565b9050919050565b60008115159050919050565b600061157082611535565b9050919050565b600073ffffffffffffffffffffffffffffffffffffffff82169050919050565b6000819050919050565b60006115ac826115b3565b9050919050565b60006115be82611577565b9050919050565b60006115d082611597565b91507fffffffffffffffffffffffffffffffffffffffffffffffffffffffffffffffff8214156116035761160261160e565b5b600182019050919050565b7f4e487b7100000000000000000000000000000000000000000000000000000000600052601160045260246000fd5b7f4e487b7100000000000000000000000000000000000000000000000000000000600052601260045260246000fd5b7f6974656d20616c726561647920736f6c64000000000000000000000000000000600082015250565b7f5072696365206d7573742062652067726561746572207468616e207a65726f00600082015250565b7f6e6f7420656e6f75676820657468657220746f20636f766572206974656d207060008201527f7269636520616e64206d61726b65742066656500000000000000000000000000602082015250565b7f6974656d20646f65736e27742065786973740000000000000000000000000000600082015250565b7f5265656e7472616e637947756172643a207265656e7472616e742063616c6c00600082015250565b61176881611565565b811461177357600080fd5b50565b61177f81611597565b811461178a57600080fd5b5056fea2646970667358221220fbd676943a92b69a6d675ab469313804db098dd396a7506f22de3367a876ede164736f6c63430008040033",
  "linkReferences": {},
  "deployedLinkReferences": {}
}